[
["The following are deserialized transactions which are valid."],
["They are in the form"],
["[[[prevout hash, prevout index, prevout scriptPubKey], [input 2], ...],"],
["serializedTransaction, enforceP2SH]"],
["Objects that are only a single string (like this one) are ignored"],

["An invalid P2SH Transaction"],
[[["0000000000000000000000000000000000000000000000000000000000000100", 0, "HASH160 0x14 0x7a052c840ba73af26755de42cf01cc9e0a49fef0 EQUAL"]],
"0100000035d357530100010000000000000000000000000000000000000000000000000000000000000000000009085768617420697320ffffffff010040000000000000015100000000", false],

["Coinbase of size 2"],
["Note the input is just required to make the tester happy"],
[[["0000000000000000000000000000000000000000000000000000000000000000", -1, "1"]],
"0100000035d35753010000000000000000000000000000000000000000000000000000000000000000ffffffff025151ffffffff010040000000000000015100000000", true],

["Coinbase of size 100"],
["Note the input is just required to make the tester happy"],
[[["0000000000000000000000000000000000000000000000000000000000000000", -1, "1"]],
"0100000035d35753010000000000000000000000000000000000000000000000000000000000000000ffffffff6451515151515151515151515151515151515151515151515151515151515151515151515151515151515151515151515151515151515151515151515151515151515151515151515151515151515151515151515151515151515151515151515151515151ffffffff010040000000000000015100000000", true]
]
